{
  "_format": "hh-sol-artifact-1",
  "contractName": "Provider",
  "sourceName": "contracts/Core/Provider.sol",
  "abi": [
    {
      "inputs": [
        {
          "internalType": "address",
          "name": "priceFeed_",
          "type": "address"
        },
        {
          "internalType": "address",
          "name": "globalState_",
          "type": "address"
        },
        {
          "internalType": "address",
          "name": "quoteToken",
          "type": "address"
        }
      ],
      "stateMutability": "nonpayable",
      "type": "constructor"
    },
    {
      "inputs": [],
      "name": "BelowMinCollateralMultiplier",
      "type": "error"
    },
    {
      "anonymous": false,
      "inputs": [
        {
          "indexed": false,
          "internalType": "address",
          "name": "account",
          "type": "address"
        },
        {
          "indexed": false,
          "internalType": "uint256",
          "name": "amount",
          "type": "uint256"
        }
      ],
      "name": "BurnedQUOTE",
      "type": "event"
    },
    {
      "anonymous": false,
      "inputs": [
        {
          "indexed": false,
          "internalType": "uint8",
          "name": "version",
          "type": "uint8"
        }
      ],
      "name": "Initialized",
      "type": "event"
    },
    {
      "anonymous": false,
      "inputs": [
        {
          "indexed": false,
          "internalType": "address",
          "name": "account",
          "type": "address"
        },
        {
          "indexed": false,
          "internalType": "uint256",
          "name": "amount",
          "type": "uint256"
        }
      ],
      "name": "MintedQuote",
      "type": "event"
    },
    {
      "inputs": [
        {
          "internalType": "uint256",
          "name": "amount",
          "type": "uint256"
        }
      ],
      "name": "FlashLoan",
      "outputs": [],
      "stateMutability": "nonpayable",
      "type": "function"
    },
    {
      "inputs": [],
      "name": "QUOTE_TOKEN",
      "outputs": [
        {
          "internalType": "address",
          "name": "",
          "type": "address"
        }
      ],
      "stateMutability": "view",
      "type": "function"
    },
    {
      "inputs": [
        {
          "internalType": "uint256",
          "name": "amountIn",
          "type": "uint256"
        },
        {
          "internalType": "bool",
          "name": "mint",
          "type": "bool"
        }
      ],
      "name": "quoteXweiConverter",
      "outputs": [
        {
          "internalType": "uint256",
          "name": "amountOut",
          "type": "uint256"
        }
      ],
      "stateMutability": "view",
      "type": "function"
    },
    {
      "inputs": [],
      "name": "totalQuoteMinted",
      "outputs": [
        {
          "internalType": "uint256",
          "name": "",
          "type": "uint256"
        }
      ],
      "stateMutability": "view",
      "type": "function"
    },
    {
      "stateMutability": "payable",
      "type": "receive"
    }
  ],
  "bytecode": "0x60e060405234801561001057600080fd5b50604051610be8380380610be883398181016040528101906100329190610139565b8273ffffffffffffffffffffffffffffffffffffffff1660a08173ffffffffffffffffffffffffffffffffffffffff16815250508173ffffffffffffffffffffffffffffffffffffffff1660c08173ffffffffffffffffffffffffffffffffffffffff16815250508073ffffffffffffffffffffffffffffffffffffffff1660808173ffffffffffffffffffffffffffffffffffffffff168152505050505061018c565b600080fd5b600073ffffffffffffffffffffffffffffffffffffffff82169050919050565b6000610106826100db565b9050919050565b610116816100fb565b811461012157600080fd5b50565b6000815190506101338161010d565b92915050565b600080600060608486031215610152576101516100d6565b5b600061016086828701610124565b935050602061017186828701610124565b925050604061018286828701610124565b9150509250925092565b60805160a05160c051610a306101b8600039600050506000610112015260006101e80152610a306000f3fe6080604052600436106100435760003560e01c8063723788f71461004f57806378892cea1461008c57806397bf5540146100b7578063b7dac3a8146100e05761004a565b3661004a57005b600080fd5b34801561005b57600080fd5b50610076600480360381019061007191906104d8565b61010b565b6040516100839190610527565b60405180910390f35b34801561009857600080fd5b506100a16101e6565b6040516100ae9190610583565b60405180910390f35b3480156100c357600080fd5b506100de60048036038101906100d9919061059e565b61020a565b005b3480156100ec57600080fd5b506100f56102f2565b6040516101029190610527565b60405180910390f35b60008060007f000000000000000000000000000000000000000000000000000000000000000073ffffffffffffffffffffffffffffffffffffffff166398d5fdca6040518163ffffffff1660e01b81526004016040805180830381865afa15801561017a573d6000803e3d6000fd5b505050506040513d601f19601f8201168201806040525081019061019e919061063a565b9150915083156101c6576101bd8282876102f89092919063ffffffff16565b925050506101e0565b6101db82828761034b9092919063ffffffff16565b925050505b92915050565b7f000000000000000000000000000000000000000000000000000000000000000081565b61021261039d565b600033905060004790508173ffffffffffffffffffffffffffffffffffffffff166108fc849081150290604051600060405180830381858888f19350505050158015610262573d6000803e3d6000fd5b508173ffffffffffffffffffffffffffffffffffffffff1663614619546040518163ffffffff1660e01b8152600401600060405180830381600087803b1580156102ab57600080fd5b505af11580156102bf573d6000803e3d6000fd5b505050506102cf836113886103ec565b816102da91906106a9565b47146102e557600080fd5b50506102ef61041a565b50565b60335481565b600061034264e8d4a510006103348561032686600a6103179190610810565b8961042390919063ffffffff16565b61043990919063ffffffff16565b61042390919063ffffffff16565b90509392505050565b6000610394846103868561037886600c610365919061085b565b60ff16600a61044f90919063ffffffff16565b61042390919063ffffffff16565b61043990919063ffffffff16565b90509392505050565b6002600154036103e2576040517f08c379a00000000000000000000000000000000000000000000000000000000081526004016103d9906108ed565b60405180910390fd5b6002600181905550565b6000620f424062ffffff168262ffffff1684610408919061090d565b610412919061097e565b905092915050565b60018081905550565b60008183610431919061097e565b905092915050565b60008183610447919061090d565b905092915050565b6000818361045d91906109af565b905092915050565b600080fd5b6000819050919050565b61047d8161046a565b811461048857600080fd5b50565b60008135905061049a81610474565b92915050565b60008115159050919050565b6104b5816104a0565b81146104c057600080fd5b50565b6000813590506104d2816104ac565b92915050565b600080604083850312156104ef576104ee610465565b5b60006104fd8582860161048b565b925050602061050e858286016104c3565b9150509250929050565b6105218161046a565b82525050565b600060208201905061053c6000830184610518565b92915050565b600073ffffffffffffffffffffffffffffffffffffffff82169050919050565b600061056d82610542565b9050919050565b61057d81610562565b82525050565b60006020820190506105986000830184610574565b92915050565b6000602082840312156105b4576105b3610465565b5b60006105c28482850161048b565b91505092915050565b6000819050919050565b6105de816105cb565b81146105e957600080fd5b50565b6000815190506105fb816105d5565b92915050565b600060ff82169050919050565b61061781610601565b811461062257600080fd5b50565b6000815190506106348161060e565b92915050565b6000806040838503121561065157610650610465565b5b600061065f858286016105ec565b925050602061067085828601610625565b9150509250929050565b7f4e487b7100000000000000000000000000000000000000000000000000000000600052601160045260246000fd5b60006106b48261046a565b91506106bf8361046a565b92508282019050808211156106d7576106d661067a565b5b92915050565b60008160011c9050919050565b6000808291508390505b6001851115610734578086048111156107105761070f61067a565b5b600185161561071f5780820291505b808102905061072d856106dd565b94506106f4565b94509492505050565b60008261074d5760019050610809565b8161075b5760009050610809565b8160018114610771576002811461077b576107aa565b6001915050610809565b60ff84111561078d5761078c61067a565b5b8360020a9150848211156107a4576107a361067a565b5b50610809565b5060208310610133831016604e8410600b84101617156107df5782820a9050838111156107da576107d961067a565b5b610809565b6107ec84848460016106ea565b925090508184048111156108035761080261067a565b5b81810290505b9392505050565b600061081b8261046a565b915061082683610601565b92506108537fffffffffffffffffffffffffffffffffffffffffffffffffffffffffffffffff848461073d565b905092915050565b600061086682610601565b915061087183610601565b9250828201905060ff81111561088a5761088961067a565b5b92915050565b600082825260208201905092915050565b7f5265656e7472616e637947756172643a207265656e7472616e742063616c6c00600082015250565b60006108d7601f83610890565b91506108e2826108a1565b602082019050919050565b60006020820190508181036000830152610906816108ca565b9050919050565b60006109188261046a565b91506109238361046a565b92508282026109318161046a565b915082820484148315176109485761094761067a565b5b5092915050565b7f4e487b7100000000000000000000000000000000000000000000000000000000600052601260045260246000fd5b60006109898261046a565b91506109948361046a565b9250826109a4576109a361094f565b5b828204905092915050565b60006109ba8261046a565b91506109c58361046a565b92506109f27fffffffffffffffffffffffffffffffffffffffffffffffffffffffffffffffff848461073d565b90509291505056fea264697066735822122004e026a699945137c3f2690cf0d4111e1a90f1ae12924dcd54c4c0a939d8d99764736f6c63430008180033",
  "linkReferences": {},
  "deployedLinkReferences": {}
}