{
  "_format": "hh-sol-artifact-1",
  "contractName": "GlobalState",
  "sourceName": "contracts/Governance/Globalstate.sol",
  "abi": [
    {
      "inputs": [],
      "stateMutability": "nonpayable",
      "type": "constructor"
    },
    {
      "inputs": [
        {
          "internalType": "address",
          "name": "owner",
          "type": "address"
        }
      ],
      "name": "OwnableInvalidOwner",
      "type": "error"
    },
    {
      "inputs": [
        {
          "internalType": "address",
          "name": "account",
          "type": "address"
        }
      ],
      "name": "OwnableUnauthorizedAccount",
      "type": "error"
    },
    {
      "anonymous": false,
      "inputs": [
        {
          "indexed": true,
          "internalType": "address",
          "name": "previousOwner",
          "type": "address"
        },
        {
          "indexed": true,
          "internalType": "address",
          "name": "newOwner",
          "type": "address"
        }
      ],
      "name": "OwnershipTransferred",
      "type": "event"
    },
    {
      "inputs": [],
      "name": "LIQUIDATION_FEE",
      "outputs": [
        {
          "internalType": "uint24",
          "name": "",
          "type": "uint24"
        }
      ],
      "stateMutability": "view",
      "type": "function"
    },
    {
      "inputs": [],
      "name": "MAX_COLLATERAL_UTILISATION",
      "outputs": [
        {
          "internalType": "uint24",
          "name": "",
          "type": "uint24"
        }
      ],
      "stateMutability": "view",
      "type": "function"
    },
    {
      "inputs": [],
      "name": "MIN_DRAWDOWN",
      "outputs": [
        {
          "internalType": "int24",
          "name": "",
          "type": "int24"
        }
      ],
      "stateMutability": "view",
      "type": "function"
    },
    {
      "inputs": [],
      "name": "PRIVATE_MIN_MUL",
      "outputs": [
        {
          "internalType": "uint24",
          "name": "",
          "type": "uint24"
        }
      ],
      "stateMutability": "view",
      "type": "function"
    },
    {
      "inputs": [],
      "name": "PUBLIC_FEE",
      "outputs": [
        {
          "internalType": "uint24",
          "name": "",
          "type": "uint24"
        }
      ],
      "stateMutability": "view",
      "type": "function"
    },
    {
      "inputs": [],
      "name": "PUBLIC_MAX_MUL",
      "outputs": [
        {
          "internalType": "uint24",
          "name": "",
          "type": "uint24"
        }
      ],
      "stateMutability": "view",
      "type": "function"
    },
    {
      "inputs": [],
      "name": "PUBLIC_MIN_MUL",
      "outputs": [
        {
          "internalType": "uint24",
          "name": "",
          "type": "uint24"
        }
      ],
      "stateMutability": "view",
      "type": "function"
    },
    {
      "inputs": [],
      "name": "owner",
      "outputs": [
        {
          "internalType": "address",
          "name": "",
          "type": "address"
        }
      ],
      "stateMutability": "view",
      "type": "function"
    },
    {
      "inputs": [],
      "name": "privateProviderDetails",
      "outputs": [
        {
          "internalType": "uint24",
          "name": "multiplier",
          "type": "uint24"
        },
        {
          "internalType": "uint24",
          "name": "maxUtilisation",
          "type": "uint24"
        },
        {
          "internalType": "int24",
          "name": "minDrawDown",
          "type": "int24"
        },
        {
          "internalType": "uint24",
          "name": "liquidationFee",
          "type": "uint24"
        }
      ],
      "stateMutability": "view",
      "type": "function"
    },
    {
      "inputs": [],
      "name": "publicProviderDetails",
      "outputs": [
        {
          "internalType": "uint24",
          "name": "minMultiplier",
          "type": "uint24"
        },
        {
          "internalType": "uint24",
          "name": "maxMutiplier",
          "type": "uint24"
        },
        {
          "internalType": "uint24",
          "name": "fee",
          "type": "uint24"
        }
      ],
      "stateMutability": "view",
      "type": "function"
    },
    {
      "inputs": [],
      "name": "renounceOwnership",
      "outputs": [],
      "stateMutability": "nonpayable",
      "type": "function"
    },
    {
      "inputs": [
        {
          "internalType": "uint24",
          "name": "newValue",
          "type": "uint24"
        }
      ],
      "name": "setLiquidationFee",
      "outputs": [],
      "stateMutability": "nonpayable",
      "type": "function"
    },
    {
      "inputs": [
        {
          "internalType": "uint24",
          "name": "newValue",
          "type": "uint24"
        }
      ],
      "name": "setMaxCollateralUtilisation",
      "outputs": [],
      "stateMutability": "nonpayable",
      "type": "function"
    },
    {
      "inputs": [
        {
          "internalType": "int24",
          "name": "newValue",
          "type": "int24"
        }
      ],
      "name": "setMinDrawDown",
      "outputs": [],
      "stateMutability": "nonpayable",
      "type": "function"
    },
    {
      "inputs": [
        {
          "internalType": "uint24",
          "name": "newValue",
          "type": "uint24"
        }
      ],
      "name": "setPrivateMinMul",
      "outputs": [],
      "stateMutability": "nonpayable",
      "type": "function"
    },
    {
      "inputs": [
        {
          "internalType": "uint24",
          "name": "newValue",
          "type": "uint24"
        }
      ],
      "name": "setPublicMaxMul",
      "outputs": [],
      "stateMutability": "nonpayable",
      "type": "function"
    },
    {
      "inputs": [
        {
          "internalType": "uint24",
          "name": "newValue",
          "type": "uint24"
        }
      ],
      "name": "setPublicMinMul",
      "outputs": [],
      "stateMutability": "nonpayable",
      "type": "function"
    },
    {
      "inputs": [
        {
          "internalType": "uint24",
          "name": "newValue",
          "type": "uint24"
        }
      ],
      "name": "setPublicfee",
      "outputs": [],
      "stateMutability": "nonpayable",
      "type": "function"
    },
    {
      "inputs": [
        {
          "internalType": "address",
          "name": "newOwner",
          "type": "address"
        }
      ],
      "name": "transferOwnership",
      "outputs": [],
      "stateMutability": "nonpayable",
      "type": "function"
    }
  ],
  "bytecode": "0x60806040526207a120600060146101000a81548162ffffff021916908362ffffff160217905550620dbba0600060176101000a81548162ffffff021916908362ffffff1602179055507fffffffffffffffffffffffffffffffffffffffffffffffffffffffffffff3cb06000601a6101000a81548162ffffff021916908360020b62ffffff1602179055506175306000601d6101000a81548162ffffff021916908362ffffff160217905550622dc6c0600160006101000a81548162ffffff021916908362ffffff160217905550625b8d80600160036101000a81548162ffffff021916908362ffffff160217905550612710600160066101000a81548162ffffff021916908362ffffff16021790555034801561011c57600080fd5b5033600073ffffffffffffffffffffffffffffffffffffffff168173ffffffffffffffffffffffffffffffffffffffff16036101905760006040517f1e4fbdf700000000000000000000000000000000000000000000000000000000815260040161018791906102aa565b60405180910390fd5b61019f816101a560201b60201c565b506102c5565b60008060009054906101000a900473ffffffffffffffffffffffffffffffffffffffff169050816000806101000a81548173ffffffffffffffffffffffffffffffffffffffff021916908373ffffffffffffffffffffffffffffffffffffffff1602179055508173ffffffffffffffffffffffffffffffffffffffff168173ffffffffffffffffffffffffffffffffffffffff167f8be0079c531659141344cd1fd0a4f28419497f9722a3daafe3b4186f6b6457e060405160405180910390a35050565b600073ffffffffffffffffffffffffffffffffffffffff82169050919050565b600061029482610269565b9050919050565b6102a481610289565b82525050565b60006020820190506102bf600083018461029b565b92915050565b610a3f806102d46000396000f3fe608060405234801561001057600080fd5b50600436106101215760003560e01c80638da5cb5b116100ad578063b182733011610071578063b1827330146102a8578063cae3391a146102c6578063cede1ffc146102e6578063f2fde38b14610304578063f719f95a1461032057610121565b80638da5cb5b146102125780639cdd68e314610230578063a89290d11461024e578063aaa9ac9c1461026c578063aeb4965f1461028a57610121565b8063643a61fb116100f4578063643a61fb1461019657806364e68a9b146101b2578063715018a6146101d057806379371de6146101da57806380210641146101f657610121565b806309e70b52146101265780630b7f4501146101425780630d85dd2a1461015e5780636326a5f71461017a575b600080fd5b610140600480360381019061013b91906107f1565b610341565b005b61015c600480360381019061015791906107f1565b61036b565b005b610178600480360381019061017391906107f1565b610395565b005b610194600480360381019061018f9190610857565b6103bf565b005b6101b060048036038101906101ab91906107f1565b6103ec565b005b6101ba610416565b6040516101c79190610893565b60405180910390f35b6101d861042b565b005b6101f460048036038101906101ef91906107f1565b61043f565b005b610210600480360381019061020b91906107f1565b610469565b005b61021a610493565b60405161022791906108ef565b60405180910390f35b6102386104bc565b6040516102459190610919565b60405180910390f35b6102566104cf565b6040516102639190610893565b60405180910390f35b6102746104e4565b6040516102819190610893565b60405180910390f35b6102926104f9565b60405161029f9190610893565b60405180910390f35b6102b061050e565b6040516102bd9190610893565b60405180910390f35b6102ce610523565b6040516102dd93929190610934565b60405180910390f35b6102ee610569565b6040516102fb9190610893565b60405180910390f35b61031e60048036038101906103199190610997565b61057e565b005b610328610604565b60405161033894939291906109c4565b60405180910390f35b61034961065e565b80600060176101000a81548162ffffff021916908362ffffff16021790555050565b61037361065e565b80600160006101000a81548162ffffff021916908362ffffff16021790555050565b61039d61065e565b806000601d6101000a81548162ffffff021916908362ffffff16021790555050565b6103c761065e565b806000601a6101000a81548162ffffff021916908360020b62ffffff16021790555050565b6103f461065e565b80600160066101000a81548162ffffff021916908362ffffff16021790555050565b600060149054906101000a900462ffffff1681565b61043361065e565b61043d60006106e5565b565b61044761065e565b80600060146101000a81548162ffffff021916908362ffffff16021790555050565b61047161065e565b80600160036101000a81548162ffffff021916908362ffffff16021790555050565b60008060009054906101000a900473ffffffffffffffffffffffffffffffffffffffff16905090565b6000601a9054906101000a900460020b81565b600160039054906101000a900462ffffff1681565b600160069054906101000a900462ffffff1681565b600060179054906101000a900462ffffff1681565b6000601d9054906101000a900462ffffff1681565b6000806000600160009054906101000a900462ffffff16600060149054906101000a900462ffffff16600160069054906101000a900462ffffff16925092509250909192565b600160009054906101000a900462ffffff1681565b61058661065e565b600073ffffffffffffffffffffffffffffffffffffffff168173ffffffffffffffffffffffffffffffffffffffff16036105f85760006040517f1e4fbdf70000000000000000000000000000000000000000000000000000000081526004016105ef91906108ef565b60405180910390fd5b610601816106e5565b50565b600080600080600060149054906101000a900462ffffff16600060179054906101000a900462ffffff166000601a9054906101000a900460020b6000601d9054906101000a900462ffffff16935093509350935090919293565b6106666107a9565b73ffffffffffffffffffffffffffffffffffffffff16610684610493565b73ffffffffffffffffffffffffffffffffffffffff16146106e3576106a76107a9565b6040517f118cdaa70000000000000000000000000000000000000000000000000000000081526004016106da91906108ef565b60405180910390fd5b565b60008060009054906101000a900473ffffffffffffffffffffffffffffffffffffffff169050816000806101000a81548173ffffffffffffffffffffffffffffffffffffffff021916908373ffffffffffffffffffffffffffffffffffffffff1602179055508173ffffffffffffffffffffffffffffffffffffffff168173ffffffffffffffffffffffffffffffffffffffff167f8be0079c531659141344cd1fd0a4f28419497f9722a3daafe3b4186f6b6457e060405160405180910390a35050565b600033905090565b600080fd5b600062ffffff82169050919050565b6107ce816107b6565b81146107d957600080fd5b50565b6000813590506107eb816107c5565b92915050565b600060208284031215610807576108066107b1565b5b6000610815848285016107dc565b91505092915050565b60008160020b9050919050565b6108348161081e565b811461083f57600080fd5b50565b6000813590506108518161082b565b92915050565b60006020828403121561086d5761086c6107b1565b5b600061087b84828501610842565b91505092915050565b61088d816107b6565b82525050565b60006020820190506108a86000830184610884565b92915050565b600073ffffffffffffffffffffffffffffffffffffffff82169050919050565b60006108d9826108ae565b9050919050565b6108e9816108ce565b82525050565b600060208201905061090460008301846108e0565b92915050565b6109138161081e565b82525050565b600060208201905061092e600083018461090a565b92915050565b60006060820190506109496000830186610884565b6109566020830185610884565b6109636040830184610884565b949350505050565b610974816108ce565b811461097f57600080fd5b50565b6000813590506109918161096b565b92915050565b6000602082840312156109ad576109ac6107b1565b5b60006109bb84828501610982565b91505092915050565b60006080820190506109d96000830187610884565b6109e66020830186610884565b6109f3604083018561090a565b610a006060830184610884565b9594505050505056fea2646970667358221220b5f7e5ef8f305494b7d6cb81f4adfbe7236cd85a93ec4925bbc608924229a6cf64736f6c63430008180033",
  "linkReferences": {},
  "deployedLinkReferences": {}
}