{
  "_format": "hh-sol-artifact-1",
  "contractName": "PublicProvider",
  "sourceName": "contracts/Core/PublicProvider.sol",
  "abi": [
    {
      "inputs": [
        {
          "internalType": "address",
          "name": "priceFeed_",
          "type": "address"
        },
        {
          "internalType": "address",
          "name": "globalState_",
          "type": "address"
        },
        {
          "internalType": "address",
          "name": "quote_token_",
          "type": "address"
        }
      ],
      "stateMutability": "nonpayable",
      "type": "constructor"
    },
    {
      "inputs": [],
      "name": "AboveMaxCollateralMultiplier",
      "type": "error"
    },
    {
      "inputs": [],
      "name": "BelowMinCollateralMultiplier",
      "type": "error"
    },
    {
      "anonymous": false,
      "inputs": [
        {
          "indexed": false,
          "internalType": "address",
          "name": "account",
          "type": "address"
        },
        {
          "indexed": false,
          "internalType": "uint256",
          "name": "amount",
          "type": "uint256"
        }
      ],
      "name": "BurnedLETH",
      "type": "event"
    },
    {
      "anonymous": false,
      "inputs": [
        {
          "indexed": false,
          "internalType": "address",
          "name": "account",
          "type": "address"
        },
        {
          "indexed": false,
          "internalType": "uint256",
          "name": "amount",
          "type": "uint256"
        }
      ],
      "name": "BurnedQUOTE",
      "type": "event"
    },
    {
      "anonymous": false,
      "inputs": [
        {
          "indexed": false,
          "internalType": "uint8",
          "name": "version",
          "type": "uint8"
        }
      ],
      "name": "Initialized",
      "type": "event"
    },
    {
      "anonymous": false,
      "inputs": [
        {
          "indexed": false,
          "internalType": "address",
          "name": "account",
          "type": "address"
        },
        {
          "indexed": false,
          "internalType": "uint256",
          "name": "amount",
          "type": "uint256"
        }
      ],
      "name": "MintedLETH",
      "type": "event"
    },
    {
      "anonymous": false,
      "inputs": [
        {
          "indexed": false,
          "internalType": "address",
          "name": "account",
          "type": "address"
        },
        {
          "indexed": false,
          "internalType": "uint256",
          "name": "amount",
          "type": "uint256"
        }
      ],
      "name": "MintedQuote",
      "type": "event"
    },
    {
      "inputs": [
        {
          "internalType": "uint256",
          "name": "amount",
          "type": "uint256"
        }
      ],
      "name": "FlashLoan",
      "outputs": [],
      "stateMutability": "nonpayable",
      "type": "function"
    },
    {
      "inputs": [],
      "name": "LETH_TOKEN",
      "outputs": [
        {
          "internalType": "address",
          "name": "",
          "type": "address"
        }
      ],
      "stateMutability": "view",
      "type": "function"
    },
    {
      "inputs": [],
      "name": "QUOTE_TOKEN",
      "outputs": [
        {
          "internalType": "address",
          "name": "",
          "type": "address"
        }
      ],
      "stateMutability": "view",
      "type": "function"
    },
    {
      "inputs": [
        {
          "internalType": "uint256",
          "name": "amountIn",
          "type": "uint256"
        }
      ],
      "name": "burnLETH",
      "outputs": [],
      "stateMutability": "nonpayable",
      "type": "function"
    },
    {
      "inputs": [
        {
          "internalType": "uint256",
          "name": "amountIn",
          "type": "uint256"
        }
      ],
      "name": "burnQUOTE",
      "outputs": [],
      "stateMutability": "nonpayable",
      "type": "function"
    },
    {
      "inputs": [
        {
          "internalType": "uint256",
          "name": "amountIn",
          "type": "uint256"
        },
        {
          "internalType": "bool",
          "name": "mint",
          "type": "bool"
        }
      ],
      "name": "lethXETHConverter",
      "outputs": [
        {
          "internalType": "uint256",
          "name": "",
          "type": "uint256"
        }
      ],
      "stateMutability": "view",
      "type": "function"
    },
    {
      "inputs": [],
      "name": "mintLETH",
      "outputs": [],
      "stateMutability": "payable",
      "type": "function"
    },
    {
      "inputs": [],
      "name": "mintQUOTE",
      "outputs": [],
      "stateMutability": "payable",
      "type": "function"
    },
    {
      "inputs": [
        {
          "internalType": "uint256",
          "name": "amountIn",
          "type": "uint256"
        },
        {
          "internalType": "bool",
          "name": "mint",
          "type": "bool"
        }
      ],
      "name": "quoteXweiConverter",
      "outputs": [
        {
          "internalType": "uint256",
          "name": "amountOut",
          "type": "uint256"
        }
      ],
      "stateMutability": "view",
      "type": "function"
    },
    {
      "inputs": [],
      "name": "totalQuoteMinted",
      "outputs": [
        {
          "internalType": "uint256",
          "name": "",
          "type": "uint256"
        }
      ],
      "stateMutability": "view",
      "type": "function"
    },
    {
      "stateMutability": "payable",
      "type": "receive"
    }
  ],
  "bytecode": "0x6101006040523480156200001257600080fd5b5060405162003408380380620034088339818101604052810190620000389190620001c8565b8282828273ffffffffffffffffffffffffffffffffffffffff1660a08173ffffffffffffffffffffffffffffffffffffffff16815250508173ffffffffffffffffffffffffffffffffffffffff1660c08173ffffffffffffffffffffffffffffffffffffffff16815250508073ffffffffffffffffffffffffffffffffffffffff1660808173ffffffffffffffffffffffffffffffffffffffff16815250505050506012604051620000ea9062000150565b620000f691906200032f565b604051809103906000f08015801562000113573d6000803e3d6000fd5b5073ffffffffffffffffffffffffffffffffffffffff1660e08173ffffffffffffffffffffffffffffffffffffffff168152505050505062000376565b61188f8062001b7983390190565b600080fd5b600073ffffffffffffffffffffffffffffffffffffffff82169050919050565b6000620001908262000163565b9050919050565b620001a28162000183565b8114620001ae57600080fd5b50565b600081519050620001c28162000197565b92915050565b600080600060608486031215620001e457620001e36200015e565b5b6000620001f486828701620001b1565b93505060206200020786828701620001b1565b92505060406200021a86828701620001b1565b9150509250925092565b600082825260208201905092915050565b7f4c4f4e47454420455448455245554d0000000000000000000000000000000000600082015250565b60006200026d600f8362000224565b91506200027a8262000235565b602082019050919050565b7f4c45544800000000000000000000000000000000000000000000000000000000600082015250565b6000620002bd60048362000224565b9150620002ca8262000285565b602082019050919050565b6000819050919050565b600060ff82169050919050565b6000819050919050565b600062000317620003116200030b84620002d5565b620002ec565b620002df565b9050919050565b6200032981620002f6565b82525050565b600060608201905081810360008301526200034a816200025e565b905081810360208301526200035f81620002ae565b90506200037060408301846200031e565b92915050565b60805160a05160c05160e05161178a620003ef6000396000818161037e0152818161066a0152818161083701526109f10152600081816102570152818161076f0152610b3a01526000818161046301528181610a850152610ec6015260008181610539015281816108bd0152610dd6015261178a6000f3fe6080604052600436106100955760003560e01c8063ad14cb7311610059578063ad14cb7314610184578063ae2438701461018e578063b7dac3a8146101cb578063bf145a21146101f6578063c03f5c49146102005761009c565b8063285c7cf5146100a1578063551032de146100ca578063723788f7146100f357806378892cea1461013057806397bf55401461015b5761009c565b3661009c57005b600080fd5b3480156100ad57600080fd5b506100c860048036038101906100c391906110cd565b61022b565b005b3480156100d657600080fd5b506100f160048036038101906100ec91906110cd565b610357565b005b3480156100ff57600080fd5b5061011a60048036038101906101159190611132565b61045c565b6040516101279190611181565b60405180910390f35b34801561013c57600080fd5b50610145610537565b60405161015291906111dd565b60405180910390f35b34801561016757600080fd5b50610182600480360381019061017d91906110cd565b61055b565b005b61018c610643565b005b34801561019a57600080fd5b506101b560048036038101906101b09190611132565b610700565b6040516101c29190611181565b60405180910390f35b3480156101d757600080fd5b506101e061074f565b6040516101ed9190611181565b60405180910390f35b6101fe610755565b005b34801561020c57600080fd5b50610215610835565b60405161022291906111dd565b60405180910390f35b610233610859565b6000810361024057600080fd5b6000339050600061025182846108a8565b905060007f000000000000000000000000000000000000000000000000000000000000000073ffffffffffffffffffffffffffffffffffffffff1663cae3391a6040518163ffffffff1660e01b8152600401606060405180830381865afa1580156102c0573d6000803e3d6000fd5b505050506040513d601f19601f820116820180604052508101906102e49190611233565b9250505060006102f483836109a4565b836102ff91906112b5565b90503373ffffffffffffffffffffffffffffffffffffffff166108fc829081150290604051600060405180830381858888f19350505050158015610347573d6000803e3d6000fd5b50505050506103546109d2565b50565b61035f610859565b6000810361036c57600080fd5b600061037a824760006109db565b90507f000000000000000000000000000000000000000000000000000000000000000073ffffffffffffffffffffffffffffffffffffffff16639dc29fac33846040518363ffffffff1660e01b81526004016103d79291906112e9565b600060405180830381600087803b1580156103f157600080fd5b505af1158015610405573d6000803e3d6000fd5b505050503373ffffffffffffffffffffffffffffffffffffffff166108fc829081150290604051600060405180830381858888f1935050505015801561044f573d6000803e3d6000fd5b50506104596109d2565b50565b60008060007f000000000000000000000000000000000000000000000000000000000000000073ffffffffffffffffffffffffffffffffffffffff166398d5fdca6040518163ffffffff1660e01b81526004016040805180830381865afa1580156104cb573d6000803e3d6000fd5b505050506040513d601f19601f820116820180604052508101906104ef9190611381565b9150915083156105175761050e828287610d1d9092919063ffffffff16565b92505050610531565b61052c828287610d709092919063ffffffff16565b925050505b92915050565b7f000000000000000000000000000000000000000000000000000000000000000081565b610563610859565b600033905060004790508173ffffffffffffffffffffffffffffffffffffffff166108fc849081150290604051600060405180830381858888f193505050501580156105b3573d6000803e3d6000fd5b508173ffffffffffffffffffffffffffffffffffffffff1663614619546040518163ffffffff1660e01b8152600401600060405180830381600087803b1580156105fc57600080fd5b505af1158015610610573d6000803e3d6000fd5b50505050610620836113886109a4565b8161062b91906113c1565b471461063657600080fd5b50506106406109d2565b50565b61064b610859565b6000340361065857600080fd5b6000610666344760016109db565b90507f000000000000000000000000000000000000000000000000000000000000000073ffffffffffffffffffffffffffffffffffffffff166340c10f1933836040518363ffffffff1660e01b81526004016106c39291906112e9565b600060405180830381600087803b1580156106dd57600080fd5b505af11580156106f1573d6000803e3d6000fd5b50505050506106fe6109d2565b565b6000811561073a5760008047146107225761071d844760016109db565b61072f565b61072e848560016109db565b5b905080915050610749565b610746834760006109db565b90505b92915050565b60335481565b61075d610859565b6000340361076a57600080fd5b6000807f000000000000000000000000000000000000000000000000000000000000000073ffffffffffffffffffffffffffffffffffffffff1663cae3391a6040518163ffffffff1660e01b8152600401606060405180830381865afa1580156107d8573d6000803e3d6000fd5b505050506040513d601f19601f820116820180604052508101906107fc9190611233565b9250509150600061080d34836109a4565b3461081891906112b5565b90506108273382856000610dc2565b505050506108336109d2565b565b7f000000000000000000000000000000000000000000000000000000000000000081565b60026001540361089e576040517f08c379a000000000000000000000000000000000000000000000000000000000815260040161089590611452565b60405180910390fd5b6002600181905550565b6000806108b9836000806000610ebf565b90507f000000000000000000000000000000000000000000000000000000000000000073ffffffffffffffffffffffffffffffffffffffff16639dc29fac85856040518363ffffffff1660e01b81526004016109169291906112e9565b600060405180830381600087803b15801561093057600080fd5b505af1158015610944573d6000803e3d6000fd5b50505050826033600082825461095a91906112b5565b925050819055507fc0809d643707dfd3311bcf387ef6f60625c26d7372afe234ed91e27a947dd40584846040516109929291906112e9565b60405180910390a18091505092915050565b6000620f424062ffffff168262ffffff16846109c09190611472565b6109ca91906114e3565b905092915050565b60018081905550565b60008284036109ec57839050610d16565b6000807f000000000000000000000000000000000000000000000000000000000000000073ffffffffffffffffffffffffffffffffffffffff166318160ddd6040518163ffffffff1660e01b8152600401602060405180830381865afa158015610a5a573d6000803e3d6000fd5b505050506040513d601f19601f82011682018060405250810190610a7e9190611529565b90506000807f000000000000000000000000000000000000000000000000000000000000000073ffffffffffffffffffffffffffffffffffffffff166398d5fdca6040518163ffffffff1660e01b81526004016040805180830381865afa158015610aed573d6000803e3d6000fd5b505050506040513d601f19601f82011682018060405250810190610b119190611381565b915091506000610b2360008484611030565b905060008189610b3391906112b5565b90506000807f000000000000000000000000000000000000000000000000000000000000000073ffffffffffffffffffffffffffffffffffffffff1663cae3391a6040518163ffffffff1660e01b8152600401606060405180830381865afa158015610ba3573d6000803e3d6000fd5b505050506040513d601f19601f82011682018060405250810190610bc79190611233565b50915091508915610c6d578b83610bde91906112b5565b8c88610bea9190611472565b610bf491906114e3565b9750600060335403610c10578798505050505050505050610d16565b620f4240848262ffffff16610c259190611472565b610c2f91906114e3565b831115610c68576040517f520544e900000000000000000000000000000000000000000000000000000000815260040160405180910390fd5b610d0a565b868c84610c7a9190611472565b610c8491906114e3565b9750600060335403610ca0578798505050505050505050610d16565b60008884610cae91906112b5565b9050620f4240858462ffffff16610cc59190611472565b610ccf91906114e3565b811015610d08576040517f937efbcb00000000000000000000000000000000000000000000000000000000815260040160405180910390fd5b505b87985050505050505050505b9392505050565b6000610d6764e8d4a51000610d5985610d4b86600a610d3c9190611689565b8961105090919063ffffffff16565b61106690919063ffffffff16565b61105090919063ffffffff16565b90509392505050565b6000610db984610dab85610d9d86600c610d8a91906116d4565b60ff16600a61107c90919063ffffffff16565b61105090919063ffffffff16565b61106690919063ffffffff16565b90509392505050565b600080610dd28560018686610ebf565b90507f000000000000000000000000000000000000000000000000000000000000000073ffffffffffffffffffffffffffffffffffffffff166340c10f1987836040518363ffffffff1660e01b8152600401610e2f9291906112e9565b600060405180830381600087803b158015610e4957600080fd5b505af1158015610e5d573d6000803e3d6000fd5b505050508060336000828254610e7391906113c1565b925050819055507f0d8195f96806a6e3be09d8dc3e5c17aeb2b6fa830362abfcf95b6b1849822f758682604051610eab9291906112e9565b60405180910390a180915050949350505050565b60008060007f000000000000000000000000000000000000000000000000000000000000000073ffffffffffffffffffffffffffffffffffffffff166398d5fdca6040518163ffffffff1660e01b81526004016040805180830381865afa158015610f2e573d6000803e3d6000fd5b505050506040513d601f19601f82011682018060405250810190610f529190611381565b91509150851561100e57610f71828289610d1d9092919063ffffffff16565b92506000610f8d84603354610f8691906113c1565b8484611030565b905060008147610f9d91906112b5565b9050620f424062ffffff16828862ffffff16610fb99190611472565b610fc391906114e3565b8682610fcf91906112b5565b1015611007576040517f937efbcb00000000000000000000000000000000000000000000000000000000815260040160405180910390fd5b5050611026565b611023828289610d709092919063ffffffff16565b92505b5050949350505050565b6000611047838386610d709092919063ffffffff16565b90509392505050565b6000818361105e91906114e3565b905092915050565b600081836110749190611472565b905092915050565b6000818361108a9190611709565b905092915050565b600080fd5b6000819050919050565b6110aa81611097565b81146110b557600080fd5b50565b6000813590506110c7816110a1565b92915050565b6000602082840312156110e3576110e2611092565b5b60006110f1848285016110b8565b91505092915050565b60008115159050919050565b61110f816110fa565b811461111a57600080fd5b50565b60008135905061112c81611106565b92915050565b6000806040838503121561114957611148611092565b5b6000611157858286016110b8565b92505060206111688582860161111d565b9150509250929050565b61117b81611097565b82525050565b60006020820190506111966000830184611172565b92915050565b600073ffffffffffffffffffffffffffffffffffffffff82169050919050565b60006111c78261119c565b9050919050565b6111d7816111bc565b82525050565b60006020820190506111f260008301846111ce565b92915050565b600062ffffff82169050919050565b611210816111f8565b811461121b57600080fd5b50565b60008151905061122d81611207565b92915050565b60008060006060848603121561124c5761124b611092565b5b600061125a8682870161121e565b935050602061126b8682870161121e565b925050604061127c8682870161121e565b9150509250925092565b7f4e487b7100000000000000000000000000000000000000000000000000000000600052601160045260246000fd5b60006112c082611097565b91506112cb83611097565b92508282039050818111156112e3576112e2611286565b5b92915050565b60006040820190506112fe60008301856111ce565b61130b6020830184611172565b9392505050565b6000819050919050565b61132581611312565b811461133057600080fd5b50565b6000815190506113428161131c565b92915050565b600060ff82169050919050565b61135e81611348565b811461136957600080fd5b50565b60008151905061137b81611355565b92915050565b6000806040838503121561139857611397611092565b5b60006113a685828601611333565b92505060206113b78582860161136c565b9150509250929050565b60006113cc82611097565b91506113d783611097565b92508282019050808211156113ef576113ee611286565b5b92915050565b600082825260208201905092915050565b7f5265656e7472616e637947756172643a207265656e7472616e742063616c6c00600082015250565b600061143c601f836113f5565b915061144782611406565b602082019050919050565b6000602082019050818103600083015261146b8161142f565b9050919050565b600061147d82611097565b915061148883611097565b925082820261149681611097565b915082820484148315176114ad576114ac611286565b5b5092915050565b7f4e487b7100000000000000000000000000000000000000000000000000000000600052601260045260246000fd5b60006114ee82611097565b91506114f983611097565b925082611509576115086114b4565b5b828204905092915050565b600081519050611523816110a1565b92915050565b60006020828403121561153f5761153e611092565b5b600061154d84828501611514565b91505092915050565b60008160011c9050919050565b6000808291508390505b60018511156115ad5780860481111561158957611588611286565b5b60018516156115985780820291505b80810290506115a685611556565b945061156d565b94509492505050565b6000826115c65760019050611682565b816115d45760009050611682565b81600181146115ea57600281146115f457611623565b6001915050611682565b60ff84111561160657611605611286565b5b8360020a91508482111561161d5761161c611286565b5b50611682565b5060208310610133831016604e8410600b84101617156116585782820a90508381111561165357611652611286565b5b611682565b6116658484846001611563565b9250905081840481111561167c5761167b611286565b5b81810290505b9392505050565b600061169482611097565b915061169f83611348565b92506116cc7fffffffffffffffffffffffffffffffffffffffffffffffffffffffffffffffff84846115b6565b905092915050565b60006116df82611348565b91506116ea83611348565b9250828201905060ff81111561170357611702611286565b5b92915050565b600061171482611097565b915061171f83611097565b925061174c7fffffffffffffffffffffffffffffffffffffffffffffffffffffffffffffffff84846115b6565b90509291505056fea2646970667358221220f32d265c961353c4741f730e367adc523a9a0e701a75a574467564515bc4605164736f6c6343000818003360c06040523480156200001157600080fd5b506040516200188f3803806200188f83398181016040528101906200003791906200027b565b828281600390816200004a919062000560565b5080600490816200005c919062000560565b5050503373ffffffffffffffffffffffffffffffffffffffff1660808173ffffffffffffffffffffffffffffffffffffffff16815250508060ff1660a08160ff168152505050505062000647565b6000604051905090565b600080fd5b600080fd5b600080fd5b600080fd5b6000601f19601f8301169050919050565b7f4e487b7100000000000000000000000000000000000000000000000000000000600052604160045260246000fd5b6200011382620000c8565b810181811067ffffffffffffffff82111715620001355762000134620000d9565b5b80604052505050565b60006200014a620000aa565b905062000158828262000108565b919050565b600067ffffffffffffffff8211156200017b576200017a620000d9565b5b6200018682620000c8565b9050602081019050919050565b60005b83811015620001b357808201518184015260208101905062000196565b60008484015250505050565b6000620001d6620001d0846200015d565b6200013e565b905082815260208101848484011115620001f557620001f4620000c3565b5b6200020284828562000193565b509392505050565b600082601f830112620002225762000221620000be565b5b815162000234848260208601620001bf565b91505092915050565b600060ff82169050919050565b62000255816200023d565b81146200026157600080fd5b50565b60008151905062000275816200024a565b92915050565b600080600060608486031215620002975762000296620000b4565b5b600084015167ffffffffffffffff811115620002b857620002b7620000b9565b5b620002c6868287016200020a565b935050602084015167ffffffffffffffff811115620002ea57620002e9620000b9565b5b620002f8868287016200020a565b92505060406200030b8682870162000264565b9150509250925092565b600081519050919050565b7f4e487b7100000000000000000000000000000000000000000000000000000000600052602260045260246000fd5b600060028204905060018216806200036857607f821691505b6020821081036200037e576200037d62000320565b5b50919050565b60008190508160005260206000209050919050565b60006020601f8301049050919050565b600082821b905092915050565b600060088302620003e87fffffffffffffffffffffffffffffffffffffffffffffffffffffffffffffffff82620003a9565b620003f48683620003a9565b95508019841693508086168417925050509392505050565b6000819050919050565b6000819050919050565b6000620004416200043b62000435846200040c565b62000416565b6200040c565b9050919050565b6000819050919050565b6200045d8362000420565b620004756200046c8262000448565b848454620003b6565b825550505050565b600090565b6200048c6200047d565b6200049981848462000452565b505050565b5b81811015620004c157620004b560008262000482565b6001810190506200049f565b5050565b601f8211156200051057620004da8162000384565b620004e58462000399565b81016020851015620004f5578190505b6200050d620005048562000399565b8301826200049e565b50505b505050565b600082821c905092915050565b6000620005356000198460080262000515565b1980831691505092915050565b600062000550838362000522565b9150826002028217905092915050565b6200056b8262000315565b67ffffffffffffffff811115620005875762000586620000d9565b5b6200059382546200034f565b620005a0828285620004c5565b600060209050601f831160018114620005d85760008415620005c3578287015190505b620005cf858262000542565b8655506200063f565b601f198416620005e88662000384565b60005b828110156200061257848901518255600182019150602085019450602081019050620005eb565b868310156200063257848901516200062e601f89168262000522565b8355505b6001600288020188555050505b505050505050565b60805160a0516112146200067b60003960006103670152600081816103e00152818161057401526105fe01526112146000f3fe608060405234801561001057600080fd5b50600436106100b45760003560e01c806370a082311161007157806370a082311461018f57806395d89b41146101bf5780639dc29fac146101dd578063a9059cbb146101f9578063c0e79a1114610229578063dd62ed3e14610245576100b4565b806306fdde03146100b9578063095ea7b3146100d757806318160ddd1461010757806323b872dd14610125578063313ce5671461015557806340c10f1914610173575b600080fd5b6100c1610275565b6040516100ce9190610e68565b60405180910390f35b6100f160048036038101906100ec9190610f23565b610307565b6040516100fe9190610f7e565b60405180910390f35b61010f61032a565b60405161011c9190610fa8565b60405180910390f35b61013f600480360381019061013a9190610fc3565b610334565b60405161014c9190610f7e565b60405180910390f35b61015d610363565b60405161016a9190611032565b60405180910390f35b61018d60048036038101906101889190610f23565b61038b565b005b6101a960048036038101906101a4919061104d565b610445565b6040516101b69190610fa8565b60405180910390f35b6101c761048d565b6040516101d49190610e68565b60405180910390f35b6101f760048036038101906101f29190610f23565b61051f565b005b610213600480360381019061020e9190610f23565b6105d9565b6040516102209190610f7e565b60405180910390f35b610243600480360381019061023e919061104d565b6105fc565b005b61025f600480360381019061025a919061107a565b6106af565b60405161026c9190610fa8565b60405180910390f35b606060038054610284906110e9565b80601f01602080910402602001604051908101604052809291908181526020018280546102b0906110e9565b80156102fd5780601f106102d2576101008083540402835291602001916102fd565b820191906000526020600020905b8154815290600101906020018083116102e057829003601f168201915b5050505050905090565b600080610312610736565b905061031f81858561073e565b600191505092915050565b6000600254905090565b60008061033f610736565b905061034c858285610750565b6103578585856107e4565b60019150509392505050565b60007f0000000000000000000000000000000000000000000000000000000000000000905090565b600560003373ffffffffffffffffffffffffffffffffffffffff1673ffffffffffffffffffffffffffffffffffffffff16815260200190815260200160002060009054906101000a900460ff168061042e57507f000000000000000000000000000000000000000000000000000000000000000073ffffffffffffffffffffffffffffffffffffffff163373ffffffffffffffffffffffffffffffffffffffff16145b61043757600080fd5b61044182826108d8565b5050565b60008060008373ffffffffffffffffffffffffffffffffffffffff1673ffffffffffffffffffffffffffffffffffffffff168152602001908152602001600020549050919050565b60606004805461049c906110e9565b80601f01602080910402602001604051908101604052809291908181526020018280546104c8906110e9565b80156105155780601f106104ea57610100808354040283529160200191610515565b820191906000526020600020905b8154815290600101906020018083116104f857829003601f168201915b5050505050905090565b600560003373ffffffffffffffffffffffffffffffffffffffff1673ffffffffffffffffffffffffffffffffffffffff16815260200190815260200160002060009054906101000a900460ff16806105c257507f000000000000000000000000000000000000000000000000000000000000000073ffffffffffffffffffffffffffffffffffffffff163373ffffffffffffffffffffffffffffffffffffffff16145b6105cb57600080fd5b6105d5828261095a565b5050565b6000806105e4610736565b90506105f18185856107e4565b600191505092915050565b7f000000000000000000000000000000000000000000000000000000000000000073ffffffffffffffffffffffffffffffffffffffff163373ffffffffffffffffffffffffffffffffffffffff161461065457600080fd5b6001600560008373ffffffffffffffffffffffffffffffffffffffff1673ffffffffffffffffffffffffffffffffffffffff16815260200190815260200160002060006101000a81548160ff02191690831515021790555050565b6000600160008473ffffffffffffffffffffffffffffffffffffffff1673ffffffffffffffffffffffffffffffffffffffff16815260200190815260200160002060008373ffffffffffffffffffffffffffffffffffffffff1673ffffffffffffffffffffffffffffffffffffffff16815260200190815260200160002054905092915050565b600033905090565b61074b83838360016109dc565b505050565b600061075c84846106af565b90507fffffffffffffffffffffffffffffffffffffffffffffffffffffffffffffffff81146107de57818110156107ce578281836040517ffb8f41b20000000000000000000000000000000000000000000000000000000081526004016107c593929190611129565b60405180910390fd5b6107dd848484840360006109dc565b5b50505050565b600073ffffffffffffffffffffffffffffffffffffffff168373ffffffffffffffffffffffffffffffffffffffff16036108565760006040517f96c6fd1e00000000000000000000000000000000000000000000000000000000815260040161084d9190611160565b60405180910390fd5b600073ffffffffffffffffffffffffffffffffffffffff168273ffffffffffffffffffffffffffffffffffffffff16036108c85760006040517fec442f050000000000000000000000000000000000000000000000000000000081526004016108bf9190611160565b60405180910390fd5b6108d3838383610bb3565b505050565b600073ffffffffffffffffffffffffffffffffffffffff168273ffffffffffffffffffffffffffffffffffffffff160361094a5760006040517fec442f050000000000000000000000000000000000000000000000000000000081526004016109419190611160565b60405180910390fd5b61095660008383610bb3565b5050565b600073ffffffffffffffffffffffffffffffffffffffff168273ffffffffffffffffffffffffffffffffffffffff16036109cc5760006040517f96c6fd1e0000000000000000000000000000000000000000000000000000000081526004016109c39190611160565b60405180910390fd5b6109d882600083610bb3565b5050565b600073ffffffffffffffffffffffffffffffffffffffff168473ffffffffffffffffffffffffffffffffffffffff1603610a4e5760006040517fe602df05000000000000000000000000000000000000000000000000000000008152600401610a459190611160565b60405180910390fd5b600073ffffffffffffffffffffffffffffffffffffffff168373ffffffffffffffffffffffffffffffffffffffff1603610ac05760006040517f94280d62000000000000000000000000000000000000000000000000000000008152600401610ab79190611160565b60405180910390fd5b81600160008673ffffffffffffffffffffffffffffffffffffffff1673ffffffffffffffffffffffffffffffffffffffff16815260200190815260200160002060008573ffffffffffffffffffffffffffffffffffffffff1673ffffffffffffffffffffffffffffffffffffffff168152602001908152602001600020819055508015610bad578273ffffffffffffffffffffffffffffffffffffffff168473ffffffffffffffffffffffffffffffffffffffff167f8c5be1e5ebec7d5bd14f71427d1e84f3dd0314c0f7b2291e5b200ac8c7c3b92584604051610ba49190610fa8565b60405180910390a35b50505050565b600073ffffffffffffffffffffffffffffffffffffffff168373ffffffffffffffffffffffffffffffffffffffff1603610c05578060026000828254610bf991906111aa565b92505081905550610cd8565b60008060008573ffffffffffffffffffffffffffffffffffffffff1673ffffffffffffffffffffffffffffffffffffffff16815260200190815260200160002054905081811015610c91578381836040517fe450d38c000000000000000000000000000000000000000000000000000000008152600401610c8893929190611129565b60405180910390fd5b8181036000808673ffffffffffffffffffffffffffffffffffffffff1673ffffffffffffffffffffffffffffffffffffffff16815260200190815260200160002081905550505b600073ffffffffffffffffffffffffffffffffffffffff168273ffffffffffffffffffffffffffffffffffffffff1603610d215780600260008282540392505081905550610d6e565b806000808473ffffffffffffffffffffffffffffffffffffffff1673ffffffffffffffffffffffffffffffffffffffff168152602001908152602001600020600082825401925050819055505b8173ffffffffffffffffffffffffffffffffffffffff168373ffffffffffffffffffffffffffffffffffffffff167fddf252ad1be2c89b69c2b068fc378daa952ba7f163c4a11628f55a4df523b3ef83604051610dcb9190610fa8565b60405180910390a3505050565b600081519050919050565b600082825260208201905092915050565b60005b83811015610e12578082015181840152602081019050610df7565b60008484015250505050565b6000601f19601f8301169050919050565b6000610e3a82610dd8565b610e448185610de3565b9350610e54818560208601610df4565b610e5d81610e1e565b840191505092915050565b60006020820190508181036000830152610e828184610e2f565b905092915050565b600080fd5b600073ffffffffffffffffffffffffffffffffffffffff82169050919050565b6000610eba82610e8f565b9050919050565b610eca81610eaf565b8114610ed557600080fd5b50565b600081359050610ee781610ec1565b92915050565b6000819050919050565b610f0081610eed565b8114610f0b57600080fd5b50565b600081359050610f1d81610ef7565b92915050565b60008060408385031215610f3a57610f39610e8a565b5b6000610f4885828601610ed8565b9250506020610f5985828601610f0e565b9150509250929050565b60008115159050919050565b610f7881610f63565b82525050565b6000602082019050610f936000830184610f6f565b92915050565b610fa281610eed565b82525050565b6000602082019050610fbd6000830184610f99565b92915050565b600080600060608486031215610fdc57610fdb610e8a565b5b6000610fea86828701610ed8565b9350506020610ffb86828701610ed8565b925050604061100c86828701610f0e565b9150509250925092565b600060ff82169050919050565b61102c81611016565b82525050565b60006020820190506110476000830184611023565b92915050565b60006020828403121561106357611062610e8a565b5b600061107184828501610ed8565b91505092915050565b6000806040838503121561109157611090610e8a565b5b600061109f85828601610ed8565b92505060206110b085828601610ed8565b9150509250929050565b7f4e487b7100000000000000000000000000000000000000000000000000000000600052602260045260246000fd5b6000600282049050600182168061110157607f821691505b602082108103611114576111136110ba565b5b50919050565b61112381610eaf565b82525050565b600060608201905061113e600083018661111a565b61114b6020830185610f99565b6111586040830184610f99565b949350505050565b6000602082019050611175600083018461111a565b92915050565b7f4e487b7100000000000000000000000000000000000000000000000000000000600052601160045260246000fd5b60006111b582610eed565b91506111c083610eed565b92508282019050808211156111d8576111d761117b565b5b9291505056fea2646970667358221220a927281c91dda49cf2a715a40a7be770f1113d69a961fb468ef000340d765ff164736f6c63430008180033",
  "linkReferences": {},
  "deployedLinkReferences": {}
}