{
  "_format": "hh-sol-artifact-1",
  "contractName": "PriceFeed",
  "sourceName": "contracts/Core/PriceFeed.sol",
  "abi": [
    {
      "inputs": [
        {
          "internalType": "address",
          "name": "pricefeed_",
          "type": "address"
        }
      ],
      "stateMutability": "nonpayable",
      "type": "constructor"
    },
    {
      "inputs": [
        {
          "internalType": "uint256",
          "name": "timestamp",
          "type": "uint256"
        }
      ],
      "name": "SequencerIsDown",
      "type": "error"
    },
    {
      "inputs": [
        {
          "internalType": "bool",
          "name": "isdummy",
          "type": "bool"
        }
      ],
      "name": "getPrice",
      "outputs": [
        {
          "internalType": "int256",
          "name": "answer",
          "type": "int256"
        },
        {
          "internalType": "uint8",
          "name": "decimal",
          "type": "uint8"
        }
      ],
      "stateMutability": "view",
      "type": "function"
    },
    {
      "inputs": [],
      "name": "getSecurePrice",
      "outputs": [
        {
          "internalType": "int256",
          "name": "answer",
          "type": "int256"
        },
        {
          "internalType": "uint8",
          "name": "decimal",
          "type": "uint8"
        }
      ],
      "stateMutability": "view",
      "type": "function"
    },
    {
      "inputs": [
        {
          "internalType": "int256",
          "name": "newValue",
          "type": "int256"
        }
      ],
      "name": "setDummyValue",
      "outputs": [],
      "stateMutability": "nonpayable",
      "type": "function"
    }
  ],
  "bytecode": "0x60c0604052645d21dba00060005534801561001957600080fd5b50604051610883380380610883833981810160405281019061003b9190610120565b73371ead81c9102c9bf4874a9075ffff170f2ee38973ffffffffffffffffffffffffffffffffffffffff1660808173ffffffffffffffffffffffffffffffffffffffff16815250508073ffffffffffffffffffffffffffffffffffffffff1660a08173ffffffffffffffffffffffffffffffffffffffff16815250505061014d565b600080fd5b600073ffffffffffffffffffffffffffffffffffffffff82169050919050565b60006100ed826100c2565b9050919050565b6100fd816100e2565b811461010857600080fd5b50565b60008151905061011a816100f4565b92915050565b600060208284031215610136576101356100bd565b5b60006101448482850161010b565b91505092915050565b60805160a0516106fd6101866000396000818161019d0152818161022e015281816102e801526103790152600060c301526106fd6000f3fe608060405234801561001057600080fd5b50600436106100415760003560e01c8063aa8a6eb714610046578063d673fc9e14610062578063e245b5af14610081575b600080fd5b610060600480360381019061005b9190610456565b6100b2565b005b61006a6100bc565b6040516100789291906104ae565b60405180910390f35b61009b6004803603810190610096919061050f565b6102cf565b6040516100a99291906104ae565b60405180910390f35b8060008190555050565b60008060007f000000000000000000000000000000000000000000000000000000000000000073ffffffffffffffffffffffffffffffffffffffff1663feaf968c6040518163ffffffff1660e01b815260040160a060405180830381865afa15801561012c573d6000803e3d6000fd5b505050506040513d601f19601f8201168201806040525081019061015091906105c9565b5050509150506001810361019b57426040517fdd8e71fc0000000000000000000000000000000000000000000000000000000081526004016101929190610653565b60405180910390fd5b7f000000000000000000000000000000000000000000000000000000000000000073ffffffffffffffffffffffffffffffffffffffff1663313ce5676040518163ffffffff1660e01b8152600401602060405180830381865afa158015610206573d6000803e3d6000fd5b505050506040513d601f19601f8201168201806040525081019061022a919061069a565b91507f000000000000000000000000000000000000000000000000000000000000000073ffffffffffffffffffffffffffffffffffffffff1663feaf968c6040518163ffffffff1660e01b815260040160a060405180830381865afa158015610297573d6000803e3d6000fd5b505050506040513d601f19601f820116820180604052508101906102bb91906105c9565b909192935090915090505080935050509091565b60008082156102e657600054600891509150610416565b7f000000000000000000000000000000000000000000000000000000000000000073ffffffffffffffffffffffffffffffffffffffff1663313ce5676040518163ffffffff1660e01b8152600401602060405180830381865afa158015610351573d6000803e3d6000fd5b505050506040513d601f19601f82011682018060405250810190610375919061069a565b90507f000000000000000000000000000000000000000000000000000000000000000073ffffffffffffffffffffffffffffffffffffffff1663feaf968c6040518163ffffffff1660e01b815260040160a060405180830381865afa1580156103e2573d6000803e3d6000fd5b505050506040513d601f19601f8201168201806040525081019061040691906105c9565b9091929350909150905050809250505b915091565b600080fd5b6000819050919050565b61043381610420565b811461043e57600080fd5b50565b6000813590506104508161042a565b92915050565b60006020828403121561046c5761046b61041b565b5b600061047a84828501610441565b91505092915050565b61048c81610420565b82525050565b600060ff82169050919050565b6104a881610492565b82525050565b60006040820190506104c36000830185610483565b6104d0602083018461049f565b9392505050565b60008115159050919050565b6104ec816104d7565b81146104f757600080fd5b50565b600081359050610509816104e3565b92915050565b6000602082840312156105255761052461041b565b5b6000610533848285016104fa565b91505092915050565b600069ffffffffffffffffffff82169050919050565b61055b8161053c565b811461056657600080fd5b50565b60008151905061057881610552565b92915050565b60008151905061058d8161042a565b92915050565b6000819050919050565b6105a681610593565b81146105b157600080fd5b50565b6000815190506105c38161059d565b92915050565b600080600080600060a086880312156105e5576105e461041b565b5b60006105f388828901610569565b95505060206106048882890161057e565b9450506040610615888289016105b4565b9350506060610626888289016105b4565b925050608061063788828901610569565b9150509295509295909350565b61064d81610593565b82525050565b60006020820190506106686000830184610644565b92915050565b61067781610492565b811461068257600080fd5b50565b6000815190506106948161066e565b92915050565b6000602082840312156106b0576106af61041b565b5b60006106be84828501610685565b9150509291505056fea2646970667358221220e2fd6296eddffa936326ff2ff08b8e47556fa52e3b2a006095c758e1aad59f7a64736f6c63430008180033",
  "linkReferences": {},
  "deployedLinkReferences": {}
}