{
  "_format": "hh-sol-artifact-1",
  "contractName": "OwnableERC20",
  "sourceName": "contracts/Core/OwnableERC20.sol",
  "abi": [
    {
      "inputs": [
        {
          "internalType": "string",
          "name": "name",
          "type": "string"
        },
        {
          "internalType": "string",
          "name": "symbol",
          "type": "string"
        },
        {
          "internalType": "uint8",
          "name": "decimal_",
          "type": "uint8"
        }
      ],
      "stateMutability": "nonpayable",
      "type": "constructor"
    },
    {
      "inputs": [
        {
          "internalType": "address",
          "name": "spender",
          "type": "address"
        },
        {
          "internalType": "uint256",
          "name": "allowance",
          "type": "uint256"
        },
        {
          "internalType": "uint256",
          "name": "needed",
          "type": "uint256"
        }
      ],
      "name": "ERC20InsufficientAllowance",
      "type": "error"
    },
    {
      "inputs": [
        {
          "internalType": "address",
          "name": "sender",
          "type": "address"
        },
        {
          "internalType": "uint256",
          "name": "balance",
          "type": "uint256"
        },
        {
          "internalType": "uint256",
          "name": "needed",
          "type": "uint256"
        }
      ],
      "name": "ERC20InsufficientBalance",
      "type": "error"
    },
    {
      "inputs": [
        {
          "internalType": "address",
          "name": "approver",
          "type": "address"
        }
      ],
      "name": "ERC20InvalidApprover",
      "type": "error"
    },
    {
      "inputs": [
        {
          "internalType": "address",
          "name": "receiver",
          "type": "address"
        }
      ],
      "name": "ERC20InvalidReceiver",
      "type": "error"
    },
    {
      "inputs": [
        {
          "internalType": "address",
          "name": "sender",
          "type": "address"
        }
      ],
      "name": "ERC20InvalidSender",
      "type": "error"
    },
    {
      "inputs": [
        {
          "internalType": "address",
          "name": "spender",
          "type": "address"
        }
      ],
      "name": "ERC20InvalidSpender",
      "type": "error"
    },
    {
      "anonymous": false,
      "inputs": [
        {
          "indexed": true,
          "internalType": "address",
          "name": "owner",
          "type": "address"
        },
        {
          "indexed": true,
          "internalType": "address",
          "name": "spender",
          "type": "address"
        },
        {
          "indexed": false,
          "internalType": "uint256",
          "name": "value",
          "type": "uint256"
        }
      ],
      "name": "Approval",
      "type": "event"
    },
    {
      "anonymous": false,
      "inputs": [
        {
          "indexed": true,
          "internalType": "address",
          "name": "from",
          "type": "address"
        },
        {
          "indexed": true,
          "internalType": "address",
          "name": "to",
          "type": "address"
        },
        {
          "indexed": false,
          "internalType": "uint256",
          "name": "value",
          "type": "uint256"
        }
      ],
      "name": "Transfer",
      "type": "event"
    },
    {
      "inputs": [
        {
          "internalType": "address",
          "name": "owner",
          "type": "address"
        },
        {
          "internalType": "address",
          "name": "spender",
          "type": "address"
        }
      ],
      "name": "allowance",
      "outputs": [
        {
          "internalType": "uint256",
          "name": "",
          "type": "uint256"
        }
      ],
      "stateMutability": "view",
      "type": "function"
    },
    {
      "inputs": [
        {
          "internalType": "address",
          "name": "spender",
          "type": "address"
        },
        {
          "internalType": "uint256",
          "name": "value",
          "type": "uint256"
        }
      ],
      "name": "approve",
      "outputs": [
        {
          "internalType": "bool",
          "name": "",
          "type": "bool"
        }
      ],
      "stateMutability": "nonpayable",
      "type": "function"
    },
    {
      "inputs": [
        {
          "internalType": "address",
          "name": "account",
          "type": "address"
        }
      ],
      "name": "balanceOf",
      "outputs": [
        {
          "internalType": "uint256",
          "name": "",
          "type": "uint256"
        }
      ],
      "stateMutability": "view",
      "type": "function"
    },
    {
      "inputs": [
        {
          "internalType": "address",
          "name": "account",
          "type": "address"
        },
        {
          "internalType": "uint256",
          "name": "amount",
          "type": "uint256"
        }
      ],
      "name": "burn",
      "outputs": [],
      "stateMutability": "nonpayable",
      "type": "function"
    },
    {
      "inputs": [],
      "name": "decimals",
      "outputs": [
        {
          "internalType": "uint8",
          "name": "",
          "type": "uint8"
        }
      ],
      "stateMutability": "view",
      "type": "function"
    },
    {
      "inputs": [
        {
          "internalType": "address",
          "name": "account",
          "type": "address"
        },
        {
          "internalType": "uint256",
          "name": "amount",
          "type": "uint256"
        }
      ],
      "name": "mint",
      "outputs": [],
      "stateMutability": "nonpayable",
      "type": "function"
    },
    {
      "inputs": [],
      "name": "name",
      "outputs": [
        {
          "internalType": "string",
          "name": "",
          "type": "string"
        }
      ],
      "stateMutability": "view",
      "type": "function"
    },
    {
      "inputs": [
        {
          "internalType": "address",
          "name": "pool",
          "type": "address"
        }
      ],
      "name": "setAllowed",
      "outputs": [],
      "stateMutability": "nonpayable",
      "type": "function"
    },
    {
      "inputs": [],
      "name": "symbol",
      "outputs": [
        {
          "internalType": "string",
          "name": "",
          "type": "string"
        }
      ],
      "stateMutability": "view",
      "type": "function"
    },
    {
      "inputs": [],
      "name": "totalSupply",
      "outputs": [
        {
          "internalType": "uint256",
          "name": "",
          "type": "uint256"
        }
      ],
      "stateMutability": "view",
      "type": "function"
    },
    {
      "inputs": [
        {
          "internalType": "address",
          "name": "to",
          "type": "address"
        },
        {
          "internalType": "uint256",
          "name": "value",
          "type": "uint256"
        }
      ],
      "name": "transfer",
      "outputs": [
        {
          "internalType": "bool",
          "name": "",
          "type": "bool"
        }
      ],
      "stateMutability": "nonpayable",
      "type": "function"
    },
    {
      "inputs": [
        {
          "internalType": "address",
          "name": "from",
          "type": "address"
        },
        {
          "internalType": "address",
          "name": "to",
          "type": "address"
        },
        {
          "internalType": "uint256",
          "name": "value",
          "type": "uint256"
        }
      ],
      "name": "transferFrom",
      "outputs": [
        {
          "internalType": "bool",
          "name": "",
          "type": "bool"
        }
      ],
      "stateMutability": "nonpayable",
      "type": "function"
    }
  ],
  "bytecode": "0x60c06040523480156200001157600080fd5b506040516200188f3803806200188f83398181016040528101906200003791906200027b565b828281600390816200004a919062000560565b5080600490816200005c919062000560565b5050503373ffffffffffffffffffffffffffffffffffffffff1660808173ffffffffffffffffffffffffffffffffffffffff16815250508060ff1660a08160ff168152505050505062000647565b6000604051905090565b600080fd5b600080fd5b600080fd5b600080fd5b6000601f19601f8301169050919050565b7f4e487b7100000000000000000000000000000000000000000000000000000000600052604160045260246000fd5b6200011382620000c8565b810181811067ffffffffffffffff82111715620001355762000134620000d9565b5b80604052505050565b60006200014a620000aa565b905062000158828262000108565b919050565b600067ffffffffffffffff8211156200017b576200017a620000d9565b5b6200018682620000c8565b9050602081019050919050565b60005b83811015620001b357808201518184015260208101905062000196565b60008484015250505050565b6000620001d6620001d0846200015d565b6200013e565b905082815260208101848484011115620001f557620001f4620000c3565b5b6200020284828562000193565b509392505050565b600082601f830112620002225762000221620000be565b5b815162000234848260208601620001bf565b91505092915050565b600060ff82169050919050565b62000255816200023d565b81146200026157600080fd5b50565b60008151905062000275816200024a565b92915050565b600080600060608486031215620002975762000296620000b4565b5b600084015167ffffffffffffffff811115620002b857620002b7620000b9565b5b620002c6868287016200020a565b935050602084015167ffffffffffffffff811115620002ea57620002e9620000b9565b5b620002f8868287016200020a565b92505060406200030b8682870162000264565b9150509250925092565b600081519050919050565b7f4e487b7100000000000000000000000000000000000000000000000000000000600052602260045260246000fd5b600060028204905060018216806200036857607f821691505b6020821081036200037e576200037d62000320565b5b50919050565b60008190508160005260206000209050919050565b60006020601f8301049050919050565b600082821b905092915050565b600060088302620003e87fffffffffffffffffffffffffffffffffffffffffffffffffffffffffffffffff82620003a9565b620003f48683620003a9565b95508019841693508086168417925050509392505050565b6000819050919050565b6000819050919050565b6000620004416200043b62000435846200040c565b62000416565b6200040c565b9050919050565b6000819050919050565b6200045d8362000420565b620004756200046c8262000448565b848454620003b6565b825550505050565b600090565b6200048c6200047d565b6200049981848462000452565b505050565b5b81811015620004c157620004b560008262000482565b6001810190506200049f565b5050565b601f8211156200051057620004da8162000384565b620004e58462000399565b81016020851015620004f5578190505b6200050d620005048562000399565b8301826200049e565b50505b505050565b600082821c905092915050565b6000620005356000198460080262000515565b1980831691505092915050565b600062000550838362000522565b9150826002028217905092915050565b6200056b8262000315565b67ffffffffffffffff811115620005875762000586620000d9565b5b6200059382546200034f565b620005a0828285620004c5565b600060209050601f831160018114620005d85760008415620005c3578287015190505b620005cf858262000542565b8655506200063f565b601f198416620005e88662000384565b60005b828110156200061257848901518255600182019150602085019450602081019050620005eb565b868310156200063257848901516200062e601f89168262000522565b8355505b6001600288020188555050505b505050505050565b60805160a0516112146200067b60003960006103670152600081816103e00152818161057401526105fe01526112146000f3fe608060405234801561001057600080fd5b50600436106100b45760003560e01c806370a082311161007157806370a082311461018f57806395d89b41146101bf5780639dc29fac146101dd578063a9059cbb146101f9578063c0e79a1114610229578063dd62ed3e14610245576100b4565b806306fdde03146100b9578063095ea7b3146100d757806318160ddd1461010757806323b872dd14610125578063313ce5671461015557806340c10f1914610173575b600080fd5b6100c1610275565b6040516100ce9190610e68565b60405180910390f35b6100f160048036038101906100ec9190610f23565b610307565b6040516100fe9190610f7e565b60405180910390f35b61010f61032a565b60405161011c9190610fa8565b60405180910390f35b61013f600480360381019061013a9190610fc3565b610334565b60405161014c9190610f7e565b60405180910390f35b61015d610363565b60405161016a9190611032565b60405180910390f35b61018d60048036038101906101889190610f23565b61038b565b005b6101a960048036038101906101a4919061104d565b610445565b6040516101b69190610fa8565b60405180910390f35b6101c761048d565b6040516101d49190610e68565b60405180910390f35b6101f760048036038101906101f29190610f23565b61051f565b005b610213600480360381019061020e9190610f23565b6105d9565b6040516102209190610f7e565b60405180910390f35b610243600480360381019061023e919061104d565b6105fc565b005b61025f600480360381019061025a919061107a565b6106af565b60405161026c9190610fa8565b60405180910390f35b606060038054610284906110e9565b80601f01602080910402602001604051908101604052809291908181526020018280546102b0906110e9565b80156102fd5780601f106102d2576101008083540402835291602001916102fd565b820191906000526020600020905b8154815290600101906020018083116102e057829003601f168201915b5050505050905090565b600080610312610736565b905061031f81858561073e565b600191505092915050565b6000600254905090565b60008061033f610736565b905061034c858285610750565b6103578585856107e4565b60019150509392505050565b60007f0000000000000000000000000000000000000000000000000000000000000000905090565b600560003373ffffffffffffffffffffffffffffffffffffffff1673ffffffffffffffffffffffffffffffffffffffff16815260200190815260200160002060009054906101000a900460ff168061042e57507f000000000000000000000000000000000000000000000000000000000000000073ffffffffffffffffffffffffffffffffffffffff163373ffffffffffffffffffffffffffffffffffffffff16145b61043757600080fd5b61044182826108d8565b5050565b60008060008373ffffffffffffffffffffffffffffffffffffffff1673ffffffffffffffffffffffffffffffffffffffff168152602001908152602001600020549050919050565b60606004805461049c906110e9565b80601f01602080910402602001604051908101604052809291908181526020018280546104c8906110e9565b80156105155780601f106104ea57610100808354040283529160200191610515565b820191906000526020600020905b8154815290600101906020018083116104f857829003601f168201915b5050505050905090565b600560003373ffffffffffffffffffffffffffffffffffffffff1673ffffffffffffffffffffffffffffffffffffffff16815260200190815260200160002060009054906101000a900460ff16806105c257507f000000000000000000000000000000000000000000000000000000000000000073ffffffffffffffffffffffffffffffffffffffff163373ffffffffffffffffffffffffffffffffffffffff16145b6105cb57600080fd5b6105d5828261095a565b5050565b6000806105e4610736565b90506105f18185856107e4565b600191505092915050565b7f000000000000000000000000000000000000000000000000000000000000000073ffffffffffffffffffffffffffffffffffffffff163373ffffffffffffffffffffffffffffffffffffffff161461065457600080fd5b6001600560008373ffffffffffffffffffffffffffffffffffffffff1673ffffffffffffffffffffffffffffffffffffffff16815260200190815260200160002060006101000a81548160ff02191690831515021790555050565b6000600160008473ffffffffffffffffffffffffffffffffffffffff1673ffffffffffffffffffffffffffffffffffffffff16815260200190815260200160002060008373ffffffffffffffffffffffffffffffffffffffff1673ffffffffffffffffffffffffffffffffffffffff16815260200190815260200160002054905092915050565b600033905090565b61074b83838360016109dc565b505050565b600061075c84846106af565b90507fffffffffffffffffffffffffffffffffffffffffffffffffffffffffffffffff81146107de57818110156107ce578281836040517ffb8f41b20000000000000000000000000000000000000000000000000000000081526004016107c593929190611129565b60405180910390fd5b6107dd848484840360006109dc565b5b50505050565b600073ffffffffffffffffffffffffffffffffffffffff168373ffffffffffffffffffffffffffffffffffffffff16036108565760006040517f96c6fd1e00000000000000000000000000000000000000000000000000000000815260040161084d9190611160565b60405180910390fd5b600073ffffffffffffffffffffffffffffffffffffffff168273ffffffffffffffffffffffffffffffffffffffff16036108c85760006040517fec442f050000000000000000000000000000000000000000000000000000000081526004016108bf9190611160565b60405180910390fd5b6108d3838383610bb3565b505050565b600073ffffffffffffffffffffffffffffffffffffffff168273ffffffffffffffffffffffffffffffffffffffff160361094a5760006040517fec442f050000000000000000000000000000000000000000000000000000000081526004016109419190611160565b60405180910390fd5b61095660008383610bb3565b5050565b600073ffffffffffffffffffffffffffffffffffffffff168273ffffffffffffffffffffffffffffffffffffffff16036109cc5760006040517f96c6fd1e0000000000000000000000000000000000000000000000000000000081526004016109c39190611160565b60405180910390fd5b6109d882600083610bb3565b5050565b600073ffffffffffffffffffffffffffffffffffffffff168473ffffffffffffffffffffffffffffffffffffffff1603610a4e5760006040517fe602df05000000000000000000000000000000000000000000000000000000008152600401610a459190611160565b60405180910390fd5b600073ffffffffffffffffffffffffffffffffffffffff168373ffffffffffffffffffffffffffffffffffffffff1603610ac05760006040517f94280d62000000000000000000000000000000000000000000000000000000008152600401610ab79190611160565b60405180910390fd5b81600160008673ffffffffffffffffffffffffffffffffffffffff1673ffffffffffffffffffffffffffffffffffffffff16815260200190815260200160002060008573ffffffffffffffffffffffffffffffffffffffff1673ffffffffffffffffffffffffffffffffffffffff168152602001908152602001600020819055508015610bad578273ffffffffffffffffffffffffffffffffffffffff168473ffffffffffffffffffffffffffffffffffffffff167f8c5be1e5ebec7d5bd14f71427d1e84f3dd0314c0f7b2291e5b200ac8c7c3b92584604051610ba49190610fa8565b60405180910390a35b50505050565b600073ffffffffffffffffffffffffffffffffffffffff168373ffffffffffffffffffffffffffffffffffffffff1603610c05578060026000828254610bf991906111aa565b92505081905550610cd8565b60008060008573ffffffffffffffffffffffffffffffffffffffff1673ffffffffffffffffffffffffffffffffffffffff16815260200190815260200160002054905081811015610c91578381836040517fe450d38c000000000000000000000000000000000000000000000000000000008152600401610c8893929190611129565b60405180910390fd5b8181036000808673ffffffffffffffffffffffffffffffffffffffff1673ffffffffffffffffffffffffffffffffffffffff16815260200190815260200160002081905550505b600073ffffffffffffffffffffffffffffffffffffffff168273ffffffffffffffffffffffffffffffffffffffff1603610d215780600260008282540392505081905550610d6e565b806000808473ffffffffffffffffffffffffffffffffffffffff1673ffffffffffffffffffffffffffffffffffffffff168152602001908152602001600020600082825401925050819055505b8173ffffffffffffffffffffffffffffffffffffffff168373ffffffffffffffffffffffffffffffffffffffff167fddf252ad1be2c89b69c2b068fc378daa952ba7f163c4a11628f55a4df523b3ef83604051610dcb9190610fa8565b60405180910390a3505050565b600081519050919050565b600082825260208201905092915050565b60005b83811015610e12578082015181840152602081019050610df7565b60008484015250505050565b6000601f19601f8301169050919050565b6000610e3a82610dd8565b610e448185610de3565b9350610e54818560208601610df4565b610e5d81610e1e565b840191505092915050565b60006020820190508181036000830152610e828184610e2f565b905092915050565b600080fd5b600073ffffffffffffffffffffffffffffffffffffffff82169050919050565b6000610eba82610e8f565b9050919050565b610eca81610eaf565b8114610ed557600080fd5b50565b600081359050610ee781610ec1565b92915050565b6000819050919050565b610f0081610eed565b8114610f0b57600080fd5b50565b600081359050610f1d81610ef7565b92915050565b60008060408385031215610f3a57610f39610e8a565b5b6000610f4885828601610ed8565b9250506020610f5985828601610f0e565b9150509250929050565b60008115159050919050565b610f7881610f63565b82525050565b6000602082019050610f936000830184610f6f565b92915050565b610fa281610eed565b82525050565b6000602082019050610fbd6000830184610f99565b92915050565b600080600060608486031215610fdc57610fdb610e8a565b5b6000610fea86828701610ed8565b9350506020610ffb86828701610ed8565b925050604061100c86828701610f0e565b9150509250925092565b600060ff82169050919050565b61102c81611016565b82525050565b60006020820190506110476000830184611023565b92915050565b60006020828403121561106357611062610e8a565b5b600061107184828501610ed8565b91505092915050565b6000806040838503121561109157611090610e8a565b5b600061109f85828601610ed8565b92505060206110b085828601610ed8565b9150509250929050565b7f4e487b7100000000000000000000000000000000000000000000000000000000600052602260045260246000fd5b6000600282049050600182168061110157607f821691505b602082108103611114576111136110ba565b5b50919050565b61112381610eaf565b82525050565b600060608201905061113e600083018661111a565b61114b6020830185610f99565b6111586040830184610f99565b949350505050565b6000602082019050611175600083018461111a565b92915050565b7f4e487b7100000000000000000000000000000000000000000000000000000000600052601160045260246000fd5b60006111b582610eed565b91506111c083610eed565b92508282019050808211156111d8576111d761117b565b5b9291505056fea2646970667358221220a927281c91dda49cf2a715a40a7be770f1113d69a961fb468ef000340d765ff164736f6c63430008180033",
  "linkReferences": {},
  "deployedLinkReferences": {}
}