{
  "_format": "hh-sol-artifact-1",
  "contractName": "PriceFeed",
  "sourceName": "contracts/Core/PriceFeed.sol",
  "abi": [
    {
      "inputs": [
        {
          "internalType": "address",
          "name": "pricefeed_",
          "type": "address"
        }
      ],
      "stateMutability": "nonpayable",
      "type": "constructor"
    },
    {
      "inputs": [
        {
          "internalType": "uint256",
          "name": "timestamp",
          "type": "uint256"
        }
      ],
      "name": "SequencerIsDown",
      "type": "error"
    },
    {
      "inputs": [],
      "name": "getPrice",
      "outputs": [
        {
          "internalType": "int256",
          "name": "answer",
          "type": "int256"
        },
        {
          "internalType": "uint8",
          "name": "decimal",
          "type": "uint8"
        }
      ],
      "stateMutability": "view",
      "type": "function"
    },
    {
      "inputs": [],
      "name": "getSecurePrice",
      "outputs": [
        {
          "internalType": "int256",
          "name": "answer",
          "type": "int256"
        },
        {
          "internalType": "uint8",
          "name": "decimal",
          "type": "uint8"
        }
      ],
      "stateMutability": "view",
      "type": "function"
    }
  ],
  "bytecode": "0x60c060405234801561001057600080fd5b5060405161083a38038061083a83398181016040528101906100329190610117565b73371ead81c9102c9bf4874a9075ffff170f2ee38973ffffffffffffffffffffffffffffffffffffffff1660808173ffffffffffffffffffffffffffffffffffffffff16815250508073ffffffffffffffffffffffffffffffffffffffff1660a08173ffffffffffffffffffffffffffffffffffffffff168152505050610144565b600080fd5b600073ffffffffffffffffffffffffffffffffffffffff82169050919050565b60006100e4826100b9565b9050919050565b6100f4816100d9565b81146100ff57600080fd5b50565b600081519050610111816100eb565b92915050565b60006020828403121561012d5761012c6100b4565b5b600061013b84828501610102565b91505092915050565b60805160a0516106bd61017d60003960008181607e0152818161010f015281816102900152610321015260006101b601526106bd6000f3fe608060405234801561001057600080fd5b50600436106100365760003560e01c806398d5fdca1461003b578063d673fc9e1461005a575b600080fd5b610043610079565b60405161005192919061043a565b60405180910390f35b6100626101af565b60405161007092919061043a565b60405180910390f35b6000807f000000000000000000000000000000000000000000000000000000000000000073ffffffffffffffffffffffffffffffffffffffff1663313ce5676040518163ffffffff1660e01b8152600401602060405180830381865afa1580156100e7573d6000803e3d6000fd5b505050506040513d601f19601f8201168201806040525081019061010b9190610494565b90507f000000000000000000000000000000000000000000000000000000000000000073ffffffffffffffffffffffffffffffffffffffff1663feaf968c6040518163ffffffff1660e01b815260040160a060405180830381865afa158015610178573d6000803e3d6000fd5b505050506040513d601f19601f8201168201806040525081019061019c9190610565565b9091929350909150905050809250509091565b60008060007f000000000000000000000000000000000000000000000000000000000000000073ffffffffffffffffffffffffffffffffffffffff1663feaf968c6040518163ffffffff1660e01b815260040160a060405180830381865afa15801561021f573d6000803e3d6000fd5b505050506040513d601f19601f820116820180604052508101906102439190610565565b5050509150506001810361028e57426040517fdd8e71fc00000000000000000000000000000000000000000000000000000000815260040161028591906105ef565b60405180910390fd5b7f000000000000000000000000000000000000000000000000000000000000000073ffffffffffffffffffffffffffffffffffffffff1663313ce5676040518163ffffffff1660e01b8152600401602060405180830381865afa1580156102f9573d6000803e3d6000fd5b505050506040513d601f19601f8201168201806040525081019061031d9190610494565b91507f000000000000000000000000000000000000000000000000000000000000000073ffffffffffffffffffffffffffffffffffffffff1663feaf968c6040518163ffffffff1660e01b815260040160a060405180830381865afa15801561038a573d6000803e3d6000fd5b505050506040513d601f19601f820116820180604052508101906103ae9190610565565b90919293509091509050508093505060008313610400576040517f08c379a00000000000000000000000000000000000000000000000000000000081526004016103f790610667565b60405180910390fd5b509091565b6000819050919050565b61041881610405565b82525050565b600060ff82169050919050565b6104348161041e565b82525050565b600060408201905061044f600083018561040f565b61045c602083018461042b565b9392505050565b600080fd5b6104718161041e565b811461047c57600080fd5b50565b60008151905061048e81610468565b92915050565b6000602082840312156104aa576104a9610463565b5b60006104b88482850161047f565b91505092915050565b600069ffffffffffffffffffff82169050919050565b6104e0816104c1565b81146104eb57600080fd5b50565b6000815190506104fd816104d7565b92915050565b61050c81610405565b811461051757600080fd5b50565b60008151905061052981610503565b92915050565b6000819050919050565b6105428161052f565b811461054d57600080fd5b50565b60008151905061055f81610539565b92915050565b600080600080600060a0868803121561058157610580610463565b5b600061058f888289016104ee565b95505060206105a08882890161051a565b94505060406105b188828901610550565b93505060606105c288828901610550565b92505060806105d3888289016104ee565b9150509295509295909350565b6105e98161052f565b82525050565b600060208201905061060460008301846105e0565b92915050565b600082825260208201905092915050565b7f5072696365206665746368206661696c75726500000000000000000000000000600082015250565b600061065160138361060a565b915061065c8261061b565b602082019050919050565b6000602082019050818103600083015261068081610644565b905091905056fea2646970667358221220bdeb6491c4ef3f29856e5c65b0db9e9b52c2d57c86c531ea898f03829b13833364736f6c63430008180033",
  "linkReferences": {},
  "deployedLinkReferences": {}
}