{
  "_format": "hh-sol-artifact-1",
  "contractName": "ProviderDetailsFetcher",
  "sourceName": "contracts/Fetchers/ProviderDetailsFetcher.sol",
  "abi": [
    {
      "inputs": [
        {
          "internalType": "address",
          "name": "account",
          "type": "address"
        }
      ],
      "name": "getfunctionalAddress",
      "outputs": [
        {
          "internalType": "address[]",
          "name": "",
          "type": "address[]"
        }
      ],
      "stateMutability": "view",
      "type": "function"
    }
  ],
  "bytecode": "0x608060405273c7078ef8707c029988fa1b863f400667dc8e0d456000806101000a81548173ffffffffffffffffffffffffffffffffffffffff021916908373ffffffffffffffffffffffffffffffffffffffff16021790555034801561006457600080fd5b50610c19806100746000396000f3fe608060405234801561001057600080fd5b506004361061002b5760003560e01c80636bce632a14610030575b600080fd5b61004a60048036038101906100459190610414565b610060565b60405161005791906104ff565b60405180910390f35b606060008060009054906101000a900473ffffffffffffffffffffffffffffffffffffffff1673ffffffffffffffffffffffffffffffffffffffff16636b8550ec6040518163ffffffff1660e01b8152600401602060405180830381865afa1580156100d0573d6000803e3d6000fd5b505050506040513d601f19601f820116820180604052508101906100f4919061055b565b61ffff16905060008167ffffffffffffffff81111561011657610115610588565b5b6040519080825280602002602001820160405280156101445781602001602082028036833780820191505090505b5090506000805b838110156103965760008060009054906101000a900473ffffffffffffffffffffffffffffffffffffffff1673ffffffffffffffffffffffffffffffffffffffff1663aafb81bd60018461019f91906105f0565b6040518263ffffffff1660e01b81526004016101bb9190610633565b602060405180830381865afa1580156101d8573d6000803e3d6000fd5b505050506040513d601f19601f820116820180604052508101906101fc9190610663565b9050600081905060008173ffffffffffffffffffffffffffffffffffffffff16636d6d3eaf6040518163ffffffff1660e01b8152600401600060405180830381865afa158015610250573d6000803e3d6000fd5b505050506040513d6000823e3d601f19601f82011682018060405250810190610279919061099c565b905080602001516060015115801561029657506000816040015114155b8015610324575060008273ffffffffffffffffffffffffffffffffffffffff1663c25a53b08b6040518263ffffffff1660e01b81526004016102d891906109f4565b61014060405180830381865afa1580156102f6573d6000803e3d6000fd5b505050506040513d601f19601f8201168201806040525081019061031a9190610b3e565b6000015160000151145b15610386578286868151811061033d5761033c610b6c565b5b602002602001019073ffffffffffffffffffffffffffffffffffffffff16908173ffffffffffffffffffffffffffffffffffffffff1681525050848061038290610b9b565b9550505b505050808060010191505061014b565b50819350505050919050565b6000604051905090565b600080fd5b600080fd5b600073ffffffffffffffffffffffffffffffffffffffff82169050919050565b60006103e1826103b6565b9050919050565b6103f1816103d6565b81146103fc57600080fd5b50565b60008135905061040e816103e8565b92915050565b60006020828403121561042a576104296103ac565b5b6000610438848285016103ff565b91505092915050565b600081519050919050565b600082825260208201905092915050565b6000819050602082019050919050565b610476816103d6565b82525050565b6000610488838361046d565b60208301905092915050565b6000602082019050919050565b60006104ac82610441565b6104b6818561044c565b93506104c18361045d565b8060005b838110156104f25781516104d9888261047c565b97506104e483610494565b9250506001810190506104c5565b5085935050505092915050565b6000602082019050818103600083015261051981846104a1565b905092915050565b600061ffff82169050919050565b61053881610521565b811461054357600080fd5b50565b6000815190506105558161052f565b92915050565b600060208284031215610571576105706103ac565b5b600061057f84828501610546565b91505092915050565b7f4e487b7100000000000000000000000000000000000000000000000000000000600052604160045260246000fd5b6000819050919050565b7f4e487b7100000000000000000000000000000000000000000000000000000000600052601160045260246000fd5b60006105fb826105b7565b9150610606836105b7565b925082820190508082111561061e5761061d6105c1565b5b92915050565b61062d816105b7565b82525050565b60006020820190506106486000830184610624565b92915050565b60008151905061065d816103e8565b92915050565b600060208284031215610679576106786103ac565b5b60006106878482850161064e565b91505092915050565b600080fd5b6000601f19601f8301169050919050565b6106af82610695565b810181811067ffffffffffffffff821117156106ce576106cd610588565b5b80604052505050565b60006106e16103a2565b90506106ed82826106a6565b919050565b600080fd5b600080fd5b600080fd5b600067ffffffffffffffff82111561071c5761071b610588565b5b61072582610695565b9050602081019050919050565b60005b83811015610750578082015181840152602081019050610735565b60008484015250505050565b600061076f61076a84610701565b6106d7565b90508281526020810184848401111561078b5761078a6106fc565b5b610796848285610732565b509392505050565b600082601f8301126107b3576107b26106f7565b5b81516107c384826020860161075c565b91505092915050565b600062ffffff82169050919050565b6107e4816107cc565b81146107ef57600080fd5b50565b600081519050610801816107db565b92915050565b60008160020b9050919050565b61081d81610807565b811461082857600080fd5b50565b60008151905061083a81610814565b92915050565b610849816105b7565b811461085457600080fd5b50565b60008151905061086681610840565b92915050565b60008115159050919050565b6108818161086c565b811461088c57600080fd5b50565b60008151905061089e81610878565b92915050565b6000608082840312156108ba576108b9610690565b5b6108c460806106d7565b905060006108d4848285016107f2565b60008301525060206108e88482850161082b565b60208301525060406108fc84828501610857565b60408301525060606109108482850161088f565b60608301525092915050565b600060c0828403121561093257610931610690565b5b61093c60606106d7565b9050600082015167ffffffffffffffff81111561095c5761095b6106f2565b5b6109688482850161079e565b600083015250602061097c848285016108a4565b60208301525060a061099084828501610857565b60408301525092915050565b6000602082840312156109b2576109b16103ac565b5b600082015167ffffffffffffffff8111156109d0576109cf6103b1565b5b6109dc8482850161091c565b91505092915050565b6109ee816103d6565b82525050565b6000602082019050610a0960008301846109e5565b92915050565b600060e08284031215610a2557610a24610690565b5b610a2f60e06106d7565b90506000610a3f84828501610857565b6000830152506020610a5384828501610857565b6020830152506040610a6784828501610857565b6040830152506060610a7b848285016107f2565b6060830152506080610a8f8482850161082b565b60808301525060a0610aa384828501610857565b60a08301525060c0610ab784828501610857565b60c08301525092915050565b60006101408284031215610ada57610ad9610690565b5b610ae460806106d7565b90506000610af484828501610a0f565b60008301525060e0610b088482850161082b565b602083015250610100610b1d84828501610857565b604083015250610120610b328482850161064e565b60608301525092915050565b60006101408284031215610b5557610b546103ac565b5b6000610b6384828501610ac3565b91505092915050565b7f4e487b7100000000000000000000000000000000000000000000000000000000600052603260045260246000fd5b6000610ba6826105b7565b91507fffffffffffffffffffffffffffffffffffffffffffffffffffffffffffffffff8203610bd857610bd76105c1565b5b60018201905091905056fea2646970667358221220a7d2cafd381980e897f60cf7f620732979f8cfc5823bed073fa78bf67eb112c264736f6c63430008180033",
  "linkReferences": {},
  "deployedLinkReferences": {}
}