{
  "_format": "hh-sol-artifact-1",
  "contractName": "UserDetailsFetcher",
  "sourceName": "contracts/Fetchers/UserDetailsFetcher.sol",
  "abi": [
    {
      "inputs": [
        {
          "internalType": "address",
          "name": "user",
          "type": "address"
        }
      ],
      "name": "getUtilisedProviders",
      "outputs": [
        {
          "internalType": "address[]",
          "name": "providerAddresses",
          "type": "address[]"
        }
      ],
      "stateMutability": "view",
      "type": "function"
    }
  ],
  "bytecode": "0x608060405234801561001057600080fd5b50610931806100206000396000f3fe608060405234801561001057600080fd5b506004361061002b5760003560e01c8063d2c8d12f14610030575b600080fd5b61004a6004803603810190610045919061037f565b610060565b604051610057919061046a565b60405180910390f35b6060600a67ffffffffffffffff81111561007d5761007c61048c565b5b6040519080825280602002602001820160405280156100ab5781602001602082028036833780820191505090505b509050600073c7078ef8707c029988fa1b863f400667dc8e0d4573ffffffffffffffffffffffffffffffffffffffff16636b8550ec6040518163ffffffff1660e01b8152600401602060405180830381865afa15801561010f573d6000803e3d6000fd5b505050506040513d601f19601f8201168201806040525081019061013391906104f5565b61ffff1690506000805b8281101561025d57600073c7078ef8707c029988fa1b863f400667dc8e0d4573ffffffffffffffffffffffffffffffffffffffff1663aafb81bd600184610184919061055b565b6040518263ffffffff1660e01b81526004016101a0919061059e565b602060405180830381865afa1580156101bd573d6000803e3d6000fd5b505050506040513d601f19601f820116820180604052508101906101e191906105ce565b90506101ed8682610265565b1561024f5780858481518110610206576102056105fb565b5b602002602001019073ffffffffffffffffffffffffffffffffffffffff16908173ffffffffffffffffffffffffffffffffffffffff1681525050828061024b9061062a565b9350505b50808060010191505061013d565b505050919050565b60008082905060008173ffffffffffffffffffffffffffffffffffffffff1663c25a53b0866040518263ffffffff1660e01b81526004016102a69190610681565b61014060405180830381865afa1580156102c4573d6000803e3d6000fd5b505050506040513d601f19601f820116820180604052508101906102e891906108cd565b90506000816000015160000151146103055760019250505061030c565b6000925050505b92915050565b6000604051905090565b600080fd5b600073ffffffffffffffffffffffffffffffffffffffff82169050919050565b600061034c82610321565b9050919050565b61035c81610341565b811461036757600080fd5b50565b60008135905061037981610353565b92915050565b6000602082840312156103955761039461031c565b5b60006103a38482850161036a565b91505092915050565b600081519050919050565b600082825260208201905092915050565b6000819050602082019050919050565b6103e181610341565b82525050565b60006103f383836103d8565b60208301905092915050565b6000602082019050919050565b6000610417826103ac565b61042181856103b7565b935061042c836103c8565b8060005b8381101561045d57815161044488826103e7565b975061044f836103ff565b925050600181019050610430565b5085935050505092915050565b60006020820190508181036000830152610484818461040c565b905092915050565b7f4e487b7100000000000000000000000000000000000000000000000000000000600052604160045260246000fd5b600061ffff82169050919050565b6104d2816104bb565b81146104dd57600080fd5b50565b6000815190506104ef816104c9565b92915050565b60006020828403121561050b5761050a61031c565b5b6000610519848285016104e0565b91505092915050565b6000819050919050565b7f4e487b7100000000000000000000000000000000000000000000000000000000600052601160045260246000fd5b600061056682610522565b915061057183610522565b92508282019050808211156105895761058861052c565b5b92915050565b61059881610522565b82525050565b60006020820190506105b3600083018461058f565b92915050565b6000815190506105c881610353565b92915050565b6000602082840312156105e4576105e361031c565b5b60006105f2848285016105b9565b91505092915050565b7f4e487b7100000000000000000000000000000000000000000000000000000000600052603260045260246000fd5b600061063582610522565b91507fffffffffffffffffffffffffffffffffffffffffffffffffffffffffffffffff82036106675761066661052c565b5b600182019050919050565b61067b81610341565b82525050565b60006020820190506106966000830184610672565b92915050565b600080fd5b6000601f19601f8301169050919050565b6106bb826106a1565b810181811067ffffffffffffffff821117156106da576106d961048c565b5b80604052505050565b60006106ed610312565b90506106f982826106b2565b919050565b61070781610522565b811461071257600080fd5b50565b600081519050610724816106fe565b92915050565b600062ffffff82169050919050565b6107428161072a565b811461074d57600080fd5b50565b60008151905061075f81610739565b92915050565b60008160020b9050919050565b61077b81610765565b811461078657600080fd5b50565b60008151905061079881610772565b92915050565b600060e082840312156107b4576107b361069c565b5b6107be60e06106e3565b905060006107ce84828501610715565b60008301525060206107e284828501610715565b60208301525060406107f684828501610715565b604083015250606061080a84828501610750565b606083015250608061081e84828501610789565b60808301525060a061083284828501610715565b60a08301525060c061084684828501610715565b60c08301525092915050565b600061014082840312156108695761086861069c565b5b61087360806106e3565b905060006108838482850161079e565b60008301525060e061089784828501610789565b6020830152506101006108ac84828501610715565b6040830152506101206108c1848285016105b9565b60608301525092915050565b600061014082840312156108e4576108e361031c565b5b60006108f284828501610852565b9150509291505056fea26469706673582212207c9d19fee3ff0fc3182145409f73a6c045ed297f0202d2dbd8199158937a827c64736f6c63430008180033",
  "linkReferences": {},
  "deployedLinkReferences": {}
}